:020000040800F2
:1000000010060020010100087718000855160008A6
:10001000751800086D010008211E0008000000008E
:100020000000000000000000000000009B18000815
:100030009702000800000000991800089D180008A9
:100040001B0100081B0100081B0100081B01000820
:100050001B0100081B010008990200089F0200080C
:10006000A5020008AB0200081B0100081B010008E4
:100070001B0100081B0100081B01000861020008A9
:100080001B0100081B0100081B0100081B010008E0
:100090001B0100081B0100081B0100081B010008D0
:1000A0001B0100081B0100081B0100081B010008C0
:1000B0005D1900081B0100081B0100081B01000856
:1000C0001B0100081B0100081B0100081B010008A0
:1000D0001B010008DD1D00081B0100081B010008B2
:1000E0001B0100081B0100081B010008DFF80CD0F1
:1000F00000F02AF800480047651F0008100600209D
:100100000648804706480047FEE7FEE7FEE7FEE7B1
:10011000FEE7FEE7FEE7FEE7FEE7FEE7151900084B
:10012000ED000008D2B201E000F8012B491EFBD21D
:1001300070470022F6E710B513460A4604461946F2
:10014000FFF7F0FF204610BD064C074D06E0E068C3
:1001500040F0010394E8070098471034AC42F6D30E
:10016000FFF7C8FF3421000854210008FEE7000013
:10017000FEB50278FE2A5ED1451815F8012C0A2A30
:1001800059D12E4A467800231478A64253D1012231
:10019000891E03E0865C521C3344DBB28A42F9DBE1
:1001A00015F8021C994246D181780E2902D01429F3
:1001B00041D103E02249007908703CE0FE208DF82F
:1001C00000008DF8014024208DF802001D4869468A
:1001D00000788DF803001C4800788DF804001B4857
:1001E00000788DF805001A4800788DF80600194847
:1001F00000788DF8070001209DF808200B5C401C5A
:100200001A448DF808200828F6D30A200122124D3E
:100210008DF8090014022146284600F0C4FA4FF672
:10022000FF730A2269460D4801F0B6F90022214603
:10023000284600F0B8FA0020FEBD0000160000209D
:1002400031000020280000201400002015000020AC
:100250001200002013000020000801403C01002093
:10026000014800F089B800007C01002030B590F80A
:1002700040500124AC40C56B6C6004686360436807
:10028000102B036803D099600068C26030BD9A608B
:100290000068C16030BD7047012000F095B90220B0
:1002A00000F092B9042000F08FB9082000F08CB95A
:1002B00001680A6822F00E020A6001680A6822F0EA
:1002C00001020A6090F84020C36B012101FA02F29A
:1002D0005A6080F82110002180F8201008467047ED
:1002E00010B590F821100024022903D00421816365
:1002F00001243DE001680A6822F00E020A600168EC
:100300000A6822F001020A601A4A0168914201D18A
:10031000012121E0174A1432914201D110211BE042
:10032000144A2832914201D1891515E0114A3C3214
:10033000914201D189140FE00E4A5032914202D10C
:100340004FF4803108E00B4A6432914202D14FF4FD
:10035000801101E04FF08071064A083A5160012196
:1003600080F82110002180F82010416B01B18847EE
:10037000204610BD080002402DE9F05FC16B0C68FB
:1003800001680B68D0F840C0042202FA0CF2494D13
:10039000DFF824A1494E4A4FDFF828B1DFF828E101
:1003A00022422CD05A072AD50A68920603D40A683A
:1003B00022F004020A600168A94201D1042219E076
:1003C000514501D1402215E0B14202D14FF4806283
:1003D00010E0B94202D14FF480420BE0594502D1FE
:1003E0004FF4802206E0714502D14FF4800201E013
:1003F0004FF080622F4908394A60C16A3BE04FF0F4
:10040000020808FA0CF818EA040F4FF000094FF040
:10041000010235D05FEA837832D50B689B0605D49C
:100420000B6823F00A030B6080F821200168A942C1
:1004300001D1022219E0514501D1202215E0B1423B
:1004400002D14FF4007210E0B94202D14FF40052D1
:100450000BE0594502D14FF4003206E0714502D15C
:100460004FF4001201E04FF00072124908394A605F
:1004700080F82090816A00291AD0BDE8F05F084713
:10048000082505FA0CF5254212D01B0710D50B687C
:1004900023F00E030B6090F84010C36B02FA01F1D9
:1004A0005960826380F8212080F82090016BE2E798
:1004B000BDE8F09F080002401C00024030000240EE
:1004C00044000240580002406C00024030B548B37E
:1004D00008C8154914221944B1FBF2F18900C1631F
:1004E00012498163022141771A6843F6F0718A4309
:1004F000D0E900142143D0E902452C43214304698B
:100500002143446921438469214311431960002137
:1005100041628162C16201634163012242770177D6
:10052000084630BD012030BDF8FFFDBF000002408D
:1005300070B5044690F82000002501280CD0012059
:1005400084F8200094F821600020012E06D084F861
:1005500020000225284670BD022070BD022684F8C6
:100560002160A0632068066826F001060660204628
:10057000FFF77CFEE06A00282068016802D041F0A5
:100580000E0106E021F0040101602068016841F0DD
:100590000A0101602068016841F001010160D9E7AA
:1005A00070B5044600F004F90546601C02D004480A
:1005B0000078044400F0FCF8401BA042FAD370BD60
:1005C0000000002070470000044910B50A6802428C
:1005D00002D00860FFF7F6FF10BD000014040140D0
:1005E0002DE9F84FDFF890A100220AF1040B144620
:1005F00001274FF00F090BF1040E00BF0B6807FA3B
:1006000004F52B40AB4274D1DFF870C14E68A6EB05
:100610000C0866452BD00DDC032E34D005DC36B338
:10062000012E19D0022E2FD11BE0112E16D0122E22
:100630002AD119E0B8F5881F19D006DCB8F5803F3B
:1006400015D0B8F5801F1FD111E0B8F5001F0ED0EE
:10065000B8F5041F18D10AE0CA6815E0CA68121D6F
:1006600012E0CA6808320FE0CA680C320CE08A68EF
:100670002AB1012A4FF0080203D0456104E00422A8
:1006800002E0056100E00022FF2B01D8064601E0F0
:1006900000F104064FEA840501D9A5F12005D6F83A
:1006A00000C009FA05F82CEA080C02FA05F54CEA34
:1006B000050CC6F800C04D68ED0057D5304DAE6949
:1006C00046F00106AE61AD6924F0030605F00105B0
:1006D00000952C4D06EB050CDCF80850A6074FEAF8
:1006E000167809FA08F6B543274EB04202D1002623
:1006F00010E03BE0254EB04201D101260AE0244E35
:10070000B04201D1022605E0224EB04201D10326BB
:1007100000E0042606FA08F62E43CCF808604D687F
:10072000DAF80060ED03554601D51E4300E09E4314
:100730002E604D68DBF80060AD035D4601D51E43B9
:1007400000E09E432E604D68DEF80060ED027546C5
:1007500001D51E4300E09E432E604D68AD020E4D54
:100760002E6801D51E4300E09E432E60641C102CB1
:10077000FFF444AFBDE8F88F000401400000111001
:10078000001002400000014000080140000C014040
:1007900000100140001401400C0401408068084032
:1007A00000D0012070470AB1016170470904FBE7DE
:1007B00001488068704700000000002070B5040008
:1007C00011D021684CF6CC400860216845F25550A4
:1007D0000860D4E9000141602168A0688860FFF7E3
:1007E000E7FF054609E0012070BD00BFFFF7E0FF0D
:1007F000401B302801D9032070BD2068C068002844
:10080000F4D121684AF6AA200860002070BD006873
:100810004AF6AA2101600020704700000248816862
:10082000027811448160704700000020074810B52D
:10083000016841F010010160032000F095F80020EC
:1008400000F006F800F024F8002010BD002002405F
:1008500070B50D4D04464FF47A712878B1FBF0F075
:100860000A490968B1FBF0F000F025FB48B9102CEB
:1008700007D200222146501E00F056F800206C607E
:1008800070BD012070BD0000000000203400002079
:100890001D4808B5816941F001018161806900F05E
:1008A00001000090032000F05FF8002211466FF075
:1008B0000B0000F039F8002211466FF00A0000F03A
:1008C00033F8002211466FF0090000F02DF80022E5
:1008D0001146501F00F028F800221146101F00F0AA
:1008E00023F800221146901E00F01EF80022114647
:1008F000501E00F019F80548416821F0E06141F010
:100900000071416008BD000000100240000001407D
:1009100000F01F02012191404009800000F1E02019
:10092000C0F8001170470000F0B40E4B1B680C4675
:10093000C3F30223C3F10705042D00D90425191DB3
:10094000072901D2002300E0DB1E012606FA05F18B
:10095000491E214099409E40761E16403143F0BC0E
:1009600000F08ABF0CED00E0064900F007020868BD
:100970004FF6FF03184040EA0220034A1043086084
:10098000704700000CED00E00000FA052DE9F0478B
:10099000DFF83C8105460E46D8F8000000F007005D
:1009A000B0420CD2D8F8001021F007013143C8F84A
:1009B0000010D8F8000000F00700B04263D128789A
:1009C000444C800705D56068A96820F0F000084312
:1009D00060602878C00745D06868012816D0216873
:1009E000022816D0890700294DDA616821F0030139
:1009F00001436160FFF7DCFE6968074641F2883019
:100A000001290FD00229814619D027E021688903E6
:100A1000E9E78901E7E700BFFFF7CAFEC11B4945C7
:100A200001D918E081466068C0F381000128F3D144
:100A300018E000BFFFF7BCFEC11B49450BD860683A
:100A4000C0F381000228F5D10CE000BFFFF7B0FE33
:100A5000C11B494502D90320BDE8F087606810F04A
:100A60000C0FF3D1D8F80010404601F00701B14255
:100A70000BD9016821F0070131430160006800F0E3
:100A80000700B04201D00120E6E72878400705D5ED
:100A90006068E96820F4E060084360602878000737
:100AA00006D56068296920F4605040EAC1006060A2
:100AB00000F03CF86168084AC1F30311515CC8407A
:100AC000064908600020FFF7C3FE0020C4E70000CD
:100AD00000200240001002401C21000834000020C9
:100AE00001480068704700003400002004480549B0
:100AF00000684968044AC1F30221515CC84070474C
:100B000034000020001002402C2100080448054950
:100B100000684968044AC1F3C221515CC84070476B
:100B200034000020001002402C21000812A185B0E2
:100B30000FC98DE80F0014A0144A00680490516892
:100B4000134801F00C03042B10D0082B0ED1C1F375
:100B50008343C9031DF803000AD5516804AAC1F3F1
:100B60004041515C0A4A5043B0FBF1F005B0704778
:100B700008494843FAE7000002030405060708098C
:100B80000A0B0C0D0E0F10100102000000100240A5
:100B900000127A0000093D002DE9F84F0446007864
:100BA000B94DC00748D06868C0F38100012807D05C
:100BB0006868C0F38100022809D16868C00306D5BF
:100BC0002868800338D5606800286FD034E06068FA
:100BD000B0F5803F0BD010B1B0F5A02F11D0286830
:100BE00020F480302860286820F4802002E0286803
:100BF00040F480302860606888B1FFF7D9FD064670
:100C000009E0286840F480202860F0E7FFF7D0FD75
:100C1000801B642875D828688003F7D50CE0FFF79F
:100C2000C7FD064605E000BFFFF7C2FD801B642834
:100C3000F0D828688003F7D42078944E80074FF0CE
:100C400001094FF000083BD5686810F00C0F07D081
:100C50006868C0F38100022809D16868C00306D41F
:100C60002868800714D5206901281FD110E0206969
:100C7000B0B1C6F80090FFF79BFD074605E000BF46
:100C8000FFF796FDC01B0228C4D828688007F7D557
:100C90002868616920F0F80040EAC10028600FE090
:100CA000C6F80080FFF784FD074606E0E9E000BFD4
:100CB000FFF77EFDC01B022823D828688007F7D4E1
:100CC000207800072CD57248A169D9B1C0F80090EE
:100CD000FFF76EFD074604E0FFF76AFDC01B022820
:100CE0000FD8686A8007F7D56A484FF4FA51006850
:100CF000B0FBF1F0009000BF0098411E0091FAD2C5
:100D00000EE080E0C0F80080FFF752FD074604E0E7
:100D1000FFF74EFDC01B022875D8686A8007F7D41C
:100D20002078400760D5E8690027C00008D4E8694A
:100D300040F08050E861E869012700F080500090A1
:100D400055480168C90513D40168834641F4807190
:100D50000160FFF72DFD824606E000BFFFF728FD8A
:100D6000A0EB0A0064284ED8DBF80000C005F5D5DA
:100D7000E06801280AD008B1052813D0286A20F0BD
:100D800001002862286A20F0040002E0286A40F08E
:100D900001002862E06841F2883B98B1FFF708FD46
:100DA00082460BE0286A40F004002862EEE700BFAC
:100DB000FFF7FEFCA0EB0A0159455AD8286A8007C4
:100DC000F6D50CE0FFF7F4FC824605E0FFF7F0FCF7
:100DD000A0EB0A0159454CD8286A8007F6D41FB108
:100DE000E86920F08050E861E06988B36968C1F380
:100DF0008101022945D00228C6F8608004D0FFF79F
:100E0000D7FC044638E034E0FFF7D2FC074604E0A4
:100E1000FFF7CEFCC01B02282BD828688001F7D42E
:100E2000206AB0F5803F05D16868A16820F40030E1
:100E300008436860D4E908010843696821F4741123
:100E400008436860C6F86090FFF7B2FC044606E00D
:100E500015E000BFFFF7ACFC001B022809D828688A
:100E60008001F7D50BE000BFFFF7A2FC001B0228B2
:100E700002D90320BDE8F88F28688001F4D400204F
:100E8000F8E70120F6E700000010024000004242AF
:100E90008004424234000020007000404FF0E02106
:100EA0000428086903D020F004000861704740F06E
:100EB0000400FAE7704710B5401EB0F1807F01D3FF
:100EC000012010BD4FF0E02460610F21601700F099
:100ED000D3FC0020A06107202061002010BD10B5C8
:100EE000FFF7E8FF10BD7047704730B590F83C2021
:100EF000012A20D0012280F83C20022380F83D30D6
:100F000003685C6824F070045C6003685C680D68CA
:100F10002C435C6003689C6824F080049C60036838
:100F20009C6849680C439C6080F83D20002180F853
:100F30003C10084630BD022030BD10B5040003D07F
:100F400094F83D0010B107E0012010BD002084F8A6
:100F50003C00204600F00CF8022084F83D00211DE2
:100F6000206800F001FD012084F83D00002010BD44
:100F700008B50068B0F1804F12D10A48C16941F04C
:100F80000101C161C069002200F00100009002214E
:100F90001C20FFF7C9FCBDE808401C20FFF7B8BCC7
:100FA00008BD0000001002400168CA6842F001025A
:100FB000CA600068016841F00101016000207047CB
:100FC00070B5044690F83C00012817D0012584F83C
:100FD0003C50022084F83D002068826822F07702AD
:100FE00022F47F4282600868502837D00DDC202828
:100FF00059D005DC88B3102841D151E0022070BDE2
:10100000302853D040283AD13FE060282ED07028B5
:101010000BD0B0F5805F03D0B0F5005F2FD110E0AA
:101020002068816821F0070115E0CB68D1E9012132
:10103000206800F0CFFC2168886840F07700886065
:101040001DE0CB68D1E90121206800F0C3FC2068D5
:10105000816841F48041816011E01EE0CA684968FE
:10106000206800F0C9FC5021206806E0CA68496881
:10107000206800F0D2FC6021206800F0B5FC84F804
:101080003D50002084F83C0070BDCA684968206863
:1010900000F0B2FC40212068EFE700212068ECE777
:1010A00010212068E9E720212068E6E73021206848
:1010B000E3E7704770B50446006801694FF000052A
:1010C000C943890715D4C168C943890711D4E91EEA
:1010D000016101202077206880698007204602D0C6
:1010E000FFF7E7FF04E000F098F8204600F096F8DC
:1010F000257720680169C943490717D4C168C943E6
:10110000490713D46FF004010161022020772068A1
:10111000806910F4407F204602D0FFF7CAFF04E048
:1011200000F07BF8204600F079F825772068016907
:10113000C943090716D4C168C943090712D46FF01F
:1011400008010161042020772068C06980072046DB
:1011500002D0FFF7AEFF04E000F05FF8204600F099
:101160005DF8257720680169C943C90617D4C168AD
:10117000C943C90613D46FF010010161082020771C
:101180002068C06910F4407F204602D0FFF791FF2D
:1011900004E000F042F8204600F040F8257720688F
:1011A0000169C943C90708D1C168C943C90704D146
:1011B000891E0161204600F033F820680169C943A7
:1011C000090609D4C168C943090605D46FF0800136
:1011D00001612046FFF787FE20680169C94349067F
:1011E00009D4C168C943490605D46FF040010161C3
:1011F000204600F045F820680169C94389060BD4F0
:10120000C168C943890607D46FF0200101612046F7
:10121000BDE87040FFF768BE70BD704770470000C2
:10122000124910B588420FD111490868B0F5FA7F0C
:1012300001D2401C08600F490F4A0868C82804D230
:10124000401C08600020107010BD012010700B4C75
:10125000010300222046FFF7A6FA2046BDE8104011
:1012600000224FF48041FFF79EBA0000C001002029
:101270002C0000201C00002030000020000C014049
:10128000704710B504460068416994F83920C1F3ED
:10129000C011212A0BD151B1416921F08001416176
:1012A000206B08B1FFF704F8204600F026FC206808
:1012B000416994F83A20C1F38011222A0BD151B12F
:1012C000416921F040014161606B08B1FEF7F0FF18
:1012D000204600F004FC002010BD704770B5026885
:1012E00004461068D168536910F00F0F50D003F016
:1012F000010501F4907635435DD0C20705D0CA05DB
:1013000003D5E26B42F00102E263420705D5DA073A
:1013100003D0E26B42F00202E263820705D5DA07EE
:1013200003D0E26B42F00402E263020705D5DA075C
:1013300003D0E26B42F00802E263E26B002A33D092
:10134000800604D5880602D5204600F0DFFB206821
:101350004069E16BC0F38010090700D428B3204630
:1013600000F0BDFB2068416949061AD5416921F0AA
:1013700040014161606BA0B11B494163606BFEF7A6
:10138000AFFF002810D0606B416BBDE8704008478C
:10139000830610D58B060ED52046BDE8704000F0C0
:1013A000B5BB2046FFF799FF70BD2046FFF795FFBC
:1013B0000020E06370BD030606D50B0604D5204669
:1013C000BDE8704000F0A6BC4006F3D54806F1D554
:1013D000D168204621F04001D160202184F83910E5
:1013E00000F037F970BD00003F1A000870B5040026
:1013F00004D094F83900002510B106E0012070BD3A
:1014000084F83850204600F023F8242084F839006E
:101410002068C16821F40051C160204600F0C2FB81
:101420002068016921F4904101612068416921F03F
:101430002A0141612068C16841F40051C160E5633F
:10144000202084F8390084F83A00002070BD0000A4
:1014500070B506460068204986B088423AD11F48D8
:10146000816941F48041816180691D4C00F48040B4
:1014700004904FF40070009002200190032003902C
:1014800069462046FFF7ACF800252015CDE9000598
:10149000694620460295FFF7A3F8134C1148C4E9AA
:1014A00000058020C4E9025025616561A5612046E0
:1014B000E561FFF70BF818B170210CA000F0DCFC1F
:1014C00074630022114625206662FFF72DFA25205D
:1014D000FFF71EFA06B070BD003801400010024050
:1014E00000080140580002407C0100202E2E2F539E
:1014F00072632F75736172742E630000F8B5044631
:1015000090F83A0020283CD1C1B3BAB394F838001F
:10151000012836D0012084F83800A162A285002578
:10152000E563222084F83A00636B17489862636B86
:101530001648D862636B16481863606B13464563A0
:101540000846666B216802463046091DFEF7F0FF2B
:10155000206801684168009184F83850C16841F4FE
:101560008071C1602068416941F0010141612068DA
:10157000416941F0400141610020F8BDFFE70120D1
:10158000FBE70220F9E70000991A0008D51A0008C5
:101590004F1A0008704770472DE9F843044690F849
:1015A00039001F4616460D46202850D1A5B19EB1E0
:1015B00094F8380001284AD0012084F838004FF010
:1015C0000008C4F83C80212084F83900FFF7F0F8C7
:1015D000A6848146E68426E00120BDE8F883E08CFD
:1015E000401EE084A0684B46B0F5805F4FF00002DB
:1015F0004FF080012046009703D000F0BCFBE8B913
:101600000DE000F0B8FBC8B928882168C0F30800D5
:101610004860206908B16D1C05E0AD1C03E021683D
:1016200015F8010B4860E08C0028D8D14B46002209
:1016300040212046009700F09EFB08B10320CCE734
:10164000202084F8390084F838800020C5E7022083
:10165000C3E77047FEE700000148FFF7D8B8000075
:101660000002002010B5074C054A2260C4E90101C0
:101670002046FFF7A3F821684CF6CC40086010BD67
:101680000030004000020020094808B5416941F0DF
:10169000010141614069002200F001000090114603
:1016A0000F20FFF741F9BDE808400F20FFF730B9E0
:1016B000001002402DE9F0433B4885B0816941F0BC
:1016C00020018161816901F020010491816941F06B
:1016D00004018161816901F004010491816941F093
:1016E000080181618069DFF8C48000F008004FF4D0
:1016F00070460490002231464046FFF754F8DFF868
:10170000B0904FF48077002239464846FFF74BF8F7
:101710000C200025CDE900050124694602944846C5
:10172000FEF75EFFF020CDE90005694602944846C9
:10173000FEF756FF0320CDE90005694602944046B6
:10174000FEF74EFFCDE90064022569464046039549
:10175000FEF746FFCDE90074694648460395FEF75B
:101760003FFF002203210620FFF7DEF80620FFF7E7
:10177000CFF8002203210720FFF7D6F80720FFF754
:10178000C7F8002203210820FFF7CEF80820FFF752
:10179000BFF8002203210920FFF7C6F80920FFF750
:1017A000B7F805B0BDE8F08300100240000C01401E
:1017B0000008014010B5174886B04FF08041016025
:1017C00047210024C0E9011440F2E731C0E90314C5
:1017D0008461FFF7B2FB18B13F210FA000F04CFB72
:1017E0004FF48050009069460A48FFF7E9FB18B1B2
:1017F000452109A000F040FB049404A90548059484
:10180000FFF773FB002803D04C2103A000F034FB4A
:1018100006B010BDC00100202E2E2F5372632F740E
:10182000696D2E63000000000D4810B50B49016082
:101830004FF416514160002181600C22C160C0E963
:1018400004128161C161FFF7D1FD002805D0BDE818
:101850001040452103A000F00FBB10BD003801402F
:101860003C0100202E2E2F5372632F75736172740A
:101870002E630000FEE770470907090E002806DA0C
:1018800000F00F0000F1E02080F8141D704700F117
:10189000E02080F8001470477047704710B5FEF7DD
:1018A000BDFFBDE81040FFF71ABB30B58FB0012176
:1018B0000804CDE900100024029402250491CDE92A
:1018C00007504FF4E01009906846FFF765F900B142
:1018D000FEE70F20CDE90A054FF48060CDE90C400A
:1018E00002210AA80E94FFF751F800B1FEE7FFF7B6
:1018F000F7F84FF47A71B0FBF1F0FFF7DCFA04204F
:10190000FFF7CCFA00221146501EFFF70DF80FB07A
:1019100030BD00000D48016841F0010101604168DF
:101920000B4A1140416001680A4A11400160016898
:1019300021F480210160416821F4FE0141604FF4EF
:101940001F0181600449C003086070470010024015
:101950000000FFF8FFFFF6FE08ED00E00148FFF78A
:10196000A9BB0000C0010020F0B50268164B174C5F
:10197000174D4FF08047984205D0B84203D0A0429F
:1019800001D0A84203D122F070064A68324398423F
:1019900005D0B84203D0A04201D0A84203D122F41E
:1019A0004074CA68224322F080044A6922430260DC
:1019B0008A68C2620A688262984201D10969016339
:1019C00001214161F0BD0000002C014000040040F5
:1019D0000008004010B5846842EA032224F47F44E2
:1019E0000A432243826010BD826822F070020A43DB
:1019F00042F007018160704710B5036A046A24F061
:101A000001040462846924F0F00444EA021423F01F
:101A10000A020A438461026210BD10B5036A23F012
:101A2000100303628369046A23F4704343EA0232B9
:101A300024F0A00343EA01118261016210BD10B5D8
:101A4000406A0021C185C184FFF747FC10BD70B515
:101A5000446A2068406994F83910C0F3C01000252A
:101A6000212904D118B1E584204600F046F8206809
:101A7000406994F83A10C0F38010222904D118B1BB
:101A8000E585204600F02BF8E06B40F01000E063A5
:101A90002046FFF722FC70BD10B50146406A096878
:101AA0000968890613D40021C1850168CA6822F437
:101AB0008072CA6001684A6922F001024A610168C5
:101AC0004A6922F040024A61202180F83A10FFF76B
:101AD00061FD10BD10B5406AFFF75DFD10BD0168E6
:101AE000CA6822F49072CA6001684A6922F0010251
:101AF0004A61202180F83A1070470168CA6822F0D4
:101B0000C002CA60202180F83910704710B590F8E3
:101B10003A10222901D0022010BD8168B1F5805F02
:101B200011D00169002901681FD0496801F07F03C5
:101B3000816A4A1C82620B70C18D491E0904090C1E
:101B4000C18518D02BE00269816A002A02685268B8
:101B500005D0D2B20A80816A491C8162ECE7C2F3E7
:101B600008020A80816A891CF7E74A68816A4B1C6F
:101B700083620A70E0E70168CA6822F02002CA6046
:101B80000168CA6822F48072CA6001684A6922F05A
:101B900001024A61202180F83A10FFF7FBFC002087
:101BA00010BD00002DE9F041044600680169E268BB
:101BB00021F44051114301612169A0680843616922
:101BC00008432168CA6841F20C639A430243CA6021
:101BD00020684169A26921F44071114341614C4977
:101BE00020686425322688423CD1FEF78FFF00EB47
:101BF000C00101EB001061688900B0FBF1F7FEF74E
:101C000085FF00EBC00101EB00106168B046890060
:101C1000B0FBF1F0B0FBF5F06FF01801484307EBB3
:101C2000800106EB0110B0FBF5F000F0F006FEF7C6
:101C30006DFF00EBC00101EB001061688900B0FB93
:101C4000F1F0B0FBF5F006EB0016FEF75FFF00EBDE
:101C5000C00101EB001061688900B0FBF1F7FEF7ED
:101C600055FF3BE0FEF742FF00EBC00101EB001027
:101C700061688900B0FBF1F7FEF738FF00EBC001A7
:101C800001EB00106168B0468900B0FBF1F0B0FBD9
:101C9000F5F06FF01801484307EB800106EB0110E7
:101CA000B0FBF5F000F0F006FEF720FF00EBC001FE
:101CB00001EB001061688900B0FBF1F0B0FBF5F0BA
:101CC00006EB0016FEF712FF00EBC00101EB00105F
:101CD00061688900B0FBF1F7FEF708FF00EBC00177
:101CE00001EB001061688900B0FBF1F0B0FBF5F08A
:101CF0006FF01801484307EB800108EB0110B0FBBF
:101D0000F5F0216800F00F0030448860BDE8F081F4
:101D10000038014090F83910212901D00220704785
:101D20008168B1F5805F016A0BD04A1C02620268CB
:101D300009785160C18C491E0904090CC1840ED078
:101D400017E009880268C1F30801516001690029A0
:101D5000016A02D0491C0162ECE7891CFBE70168BB
:101D6000CA6822F08002CA600068C16841F0400180
:101D7000C160002070472DE9F041984617460E4695
:101D80000446069D1DE0681C1BD02DB1FEF710FD1A
:101D9000A0EB0800A84214D92068C16821F4D071D2
:101DA000C1602068416921F001014161202084F86F
:101DB000390084F83A00002084F838000320BDE898
:101DC000F0812068006836EA000004D00020B842A4
:101DD000D9D00020F3E70120F9E7000010B50D4845
:101DE00000F020F80B48FFF779FA0B4C2078C00779
:101DF0000FD00A4900200870A178201DFEF7B8F91D
:101E00004FF48071201DFEF794F9207820F0010036
:101E1000207010BD3C01002038000020310000205F
:101E2000FEE7000038B504460168114881421ED122
:101E30000868C043C0061AD408684868009008685B
:101E400048682046FFF71DFA606B00684068094942
:101E5000C0F580704FF480724880087840F001002F
:101E600001F8040B2046BDE83840FFF747BB38BDFA
:101E70000038014038000020FEE702E008C8121FC9
:101E800008C1002AFAD170477047002001E001C163
:101E9000121F002AFBD1704710B51D4C0821A06904
:101EA000401CA0611B48FEF779FC6073A17B814256
:101EB00003D06179491C6171A07368B1E078401C5E
:101EC000E070607902280BD920791E2808D9E078C3
:101ED0001E2805D9022010E02079401C2071F0E76F
:101EE000207920B15A2809D9E07828B106E0E078B5
:101EF0005A2803D9032000E00120E071A06964287A
:101F000004DD0020A061E0702071607110BD000050
:101F10000C0000200008014070B5114D0024102174
:101F20002846FEF73BFC012800D00124202128464A
:101F3000FEF734FC012801D044F002044021284679
:101F4000FEF72CFC012801D044F00404802128462F
:101F5000FEF724FC012801D044F00804204670BD9F
:101F600000080140FEF762FCFFF79FFCFFF7A2FBB1
:101F7000FFF78AFBFFF758FCFFF71CFC4FF47A7160
:101F80000420FFF76FFB3E4D00224FF4005128461E
:101F9000FEF709FC00224FF400412846FEF703FC3F
:101FA0004FF48059002249462846FEF7FCFB4FF4C7
:101FB000804A002251462846FEF7F5FB3148FEF7DD
:101FC000F3FF31480068C16841F01001C160AA15F3
:101FD0002E492D48FFF792FA2D4E04213046FEF788
:101FE000DDFB2C4C08212073E0723046FEF7D6FB57
:101FF0006073A0734FF001080026274FFFF78CFF96
:10200000A072FFF729FB02212846FEF7C7FB08B1A3
:10201000267201E084F8088001212846FEF7BEFB05
:1020200008B1667201E084F80980FFF735FF00F01F
:1020300035F83878F0280DD1E07903281BD101213B
:102040002846FEF7ABFB28B1012249462846FEF799
:10205000AAFB266138780F280DD1A07903280AD170
:1020600002212846FEF79AFB28B101225146284654
:10207000FEF799FB26613E700F20FEF791FABDE74F
:10208000000C0140C00100203C0100203C00002069
:10209000000801400C0000203100002010B51D4C4C
:1020A00004216069401C60611B48FEF777FB2073C8
:1020B000E17A814203D0A178491CA170E07268B135
:1020C0002078401C2070A07802280BD960781E2848
:1020D00008D920781E2805D9022010E06078401C1D
:1020E0006070F0E7607820B15A2809D9207828B1CB
:1020F00006E020785A2803D9032000E00120A071CF
:102100006069642804DD0020606120706070A07048
:1021100010BD00000C00002000080140000000007D
:102120000000000001020304060708090000000087
:1021300001020304542100080000002038000000C0
:102140007A1E00088C21000838000020D805000005
:102150008A1E0008010000001000000000000000BE
:10216000000000000000000000000000000000006F
:10217000000000000000000000000000000000005F
:0C218000000000000000000000A24A0463
:04000005080000ED02
:00000001FF
